{
  "contractName": "MyPausable",
  "abi": [
    {
      "inputs": [],
      "stateMutability": "nonpayable",
      "type": "constructor"
    },
    {
      "inputs": [],
      "name": "_pause",
      "outputs": [],
      "stateMutability": "nonpayable",
      "type": "function"
    }
  ],
  "bytecode": "0x608060405234801561001057600080fd5b5060008060146101000a81548160ff021916908315150217905550336000806101000a81548173ffffffffffffffffffffffffffffffffffffffff021916908373ffffffffffffffffffffffffffffffffffffffff1602179055506101988061007a6000396000f3fe608060405234801561001057600080fd5b506004361061002b5760003560e01c8063320b2ad914610030575b600080fd5b61003861003a565b005b60008054906101000a900473ffffffffffffffffffffffffffffffffffffffff1673ffffffffffffffffffffffffffffffffffffffff163373ffffffffffffffffffffffffffffffffffffffff16146100c8576040517f08c379a00000000000000000000000000000000000000000000000000000000081526004016100bf90610108565b60405180910390fd5b6001600060146101000a81548160ff021916908315150217905550565b60006100f2600a83610128565b91506100fd82610139565b602082019050919050565b60006020820190508181036000830152610121816100e5565b9050919050565b600082825260208201905092915050565b7f4f6e6c792041646d696e0000000000000000000000000000000000000000000060008201525056fea26469706673582212209ff90aa87942544158893aa952b09ca36a901ce9bdad0deb5dddd25275c8665464736f6c63430008040033",
  "immutableReferences": {},
  "source": "// SPDX-License-Identifier: MIT\r\n\r\npragma solidity ^0.8.0;\r\ncontract MyPausable {\r\n    address owner;\r\n    bool  _paused;\r\nconstructor () {\r\n         _paused= false;\r\n        owner = msg.sender;\r\n}\r\nmodifier onlyAuthorized {\r\n     require(msg.sender==owner,\"Only Admin\");\r\n        _;\r\n    }\r\n    modifier whenNotPaused() {\r\n        require(!_paused, \"Pausable: Not Paused\");\r\n        _;\r\n    }\r\n    function _pause() public virtual onlyAuthorized {\r\n        _paused = true;\r\n       \r\n    }\r\n   function _unpause() internal virtual onlyAuthorized {\r\n        _paused = false;\r\n        \r\n    }\r\n    \r\n    \r\n}\r\n",
  "sourcePath": "D:\\CrowdFunding\\contracts\\MyPausable.sol",
  "compiler": {
    "name": "solc",
    "version": "0.8.4+commit.c7e474f2.Emscripten.clang"
  },
  "schemaVersion": "3.3.4",
  "updatedAt": "2021-05-07T05:29:01.086Z",
  "devdoc": {
    "kind": "dev",
    "methods": {},
    "version": 1
  },
  "userdoc": {
    "kind": "user",
    "methods": {},
    "version": 1
  }
}